{
  "_format": "hh3-artifact-1",
  "contractName": "SupplyChain",
  "sourceName": "contracts/supplychain.sol",
  "abi": [
    {
      "inputs": [],
      "stateMutability": "nonpayable",
      "type": "constructor"
    },
    {
      "anonymous": false,
      "inputs": [
        {
          "indexed": true,
          "internalType": "string",
          "name": "uid",
          "type": "string"
        },
        {
          "indexed": false,
          "internalType": "string",
          "name": "fileName",
          "type": "string"
        }
      ],
      "name": "DocumentUploaded",
      "type": "event"
    },
    {
      "anonymous": false,
      "inputs": [
        {
          "indexed": true,
          "internalType": "string",
          "name": "uid",
          "type": "string"
        },
        {
          "indexed": false,
          "internalType": "uint8",
          "name": "score",
          "type": "uint8"
        }
      ],
      "name": "InspectionCompleted",
      "type": "event"
    },
    {
      "anonymous": false,
      "inputs": [
        {
          "indexed": true,
          "internalType": "string",
          "name": "uid",
          "type": "string"
        }
      ],
      "name": "InspectionRequired",
      "type": "event"
    },
    {
      "anonymous": false,
      "inputs": [
        {
          "indexed": true,
          "internalType": "string",
          "name": "uid",
          "type": "string"
        },
        {
          "indexed": true,
          "internalType": "address",
          "name": "from",
          "type": "address"
        },
        {
          "indexed": true,
          "internalType": "address",
          "name": "to",
          "type": "address"
        }
      ],
      "name": "OwnershipTransferred",
      "type": "event"
    },
    {
      "anonymous": false,
      "inputs": [
        {
          "indexed": true,
          "internalType": "address",
          "name": "wallet",
          "type": "address"
        },
        {
          "indexed": false,
          "internalType": "string",
          "name": "companyName",
          "type": "string"
        },
        {
          "indexed": false,
          "internalType": "enum SupplyChain.Role",
          "name": "role",
          "type": "uint8"
        }
      ],
      "name": "ParticipantRegistered",
      "type": "event"
    },
    {
      "anonymous": false,
      "inputs": [
        {
          "indexed": true,
          "internalType": "address",
          "name": "wallet",
          "type": "address"
        },
        {
          "indexed": false,
          "internalType": "bool",
          "name": "isActive",
          "type": "bool"
        }
      ],
      "name": "ParticipantStatusUpdated",
      "type": "event"
    },
    {
      "anonymous": false,
      "inputs": [
        {
          "indexed": true,
          "internalType": "string",
          "name": "uid",
          "type": "string"
        }
      ],
      "name": "ProductApproved",
      "type": "event"
    },
    {
      "anonymous": false,
      "inputs": [
        {
          "indexed": true,
          "internalType": "string",
          "name": "uid",
          "type": "string"
        },
        {
          "indexed": true,
          "internalType": "address",
          "name": "manufacturer",
          "type": "address"
        }
      ],
      "name": "ProductCreated",
      "type": "event"
    },
    {
      "anonymous": false,
      "inputs": [
        {
          "indexed": true,
          "internalType": "string",
          "name": "uid",
          "type": "string"
        }
      ],
      "name": "ProductMovedToInspection",
      "type": "event"
    },
    {
      "anonymous": false,
      "inputs": [
        {
          "indexed": true,
          "internalType": "string",
          "name": "uid",
          "type": "string"
        },
        {
          "indexed": false,
          "internalType": "string",
          "name": "reason",
          "type": "string"
        }
      ],
      "name": "ProductRecalled",
      "type": "event"
    },
    {
      "anonymous": false,
      "inputs": [
        {
          "indexed": true,
          "internalType": "string",
          "name": "uid",
          "type": "string"
        }
      ],
      "name": "ProductRejected",
      "type": "event"
    },
    {
      "anonymous": false,
      "inputs": [
        {
          "indexed": true,
          "internalType": "string",
          "name": "uid",
          "type": "string"
        },
        {
          "indexed": false,
          "internalType": "uint8",
          "name": "score",
          "type": "uint8"
        }
      ],
      "name": "QualityChecked",
      "type": "event"
    },
    {
      "anonymous": false,
      "inputs": [
        {
          "indexed": true,
          "internalType": "string",
          "name": "uid",
          "type": "string"
        },
        {
          "indexed": false,
          "internalType": "uint8",
          "name": "totalScore",
          "type": "uint8"
        },
        {
          "indexed": false,
          "internalType": "bool",
          "name": "approved",
          "type": "bool"
        }
      ],
      "name": "QualityReportGenerated",
      "type": "event"
    },
    {
      "anonymous": false,
      "inputs": [
        {
          "indexed": true,
          "internalType": "address",
          "name": "user",
          "type": "address"
        },
        {
          "indexed": false,
          "internalType": "enum SupplyChain.Role",
          "name": "role",
          "type": "uint8"
        }
      ],
      "name": "RoleAssigned",
      "type": "event"
    },
    {
      "anonymous": false,
      "inputs": [
        {
          "indexed": true,
          "internalType": "string",
          "name": "uid",
          "type": "string"
        },
        {
          "indexed": true,
          "internalType": "address",
          "name": "to",
          "type": "address"
        }
      ],
      "name": "TransferAccepted",
      "type": "event"
    },
    {
      "anonymous": false,
      "inputs": [
        {
          "indexed": true,
          "internalType": "string",
          "name": "uid",
          "type": "string"
        },
        {
          "indexed": true,
          "internalType": "address",
          "name": "from",
          "type": "address"
        },
        {
          "indexed": true,
          "internalType": "address",
          "name": "to",
          "type": "address"
        }
      ],
      "name": "TransferInitiated",
      "type": "event"
    },
    {
      "inputs": [],
      "name": "PROJECT_NAME",
      "outputs": [
        {
          "internalType": "string",
          "name": "",
          "type": "string"
        }
      ],
      "stateMutability": "view",
      "type": "function"
    },
    {
      "inputs": [
        {
          "internalType": "string",
          "name": "uid",
          "type": "string"
        }
      ],
      "name": "acceptTransfer",
      "outputs": [],
      "stateMutability": "nonpayable",
      "type": "function"
    },
    {
      "inputs": [],
      "name": "admin",
      "outputs": [
        {
          "internalType": "address",
          "name": "",
          "type": "address"
        }
      ],
      "stateMutability": "view",
      "type": "function"
    },
    {
      "inputs": [],
      "name": "approvedProducts",
      "outputs": [
        {
          "internalType": "uint256",
          "name": "",
          "type": "uint256"
        }
      ],
      "stateMutability": "view",
      "type": "function"
    },
    {
      "inputs": [
        {
          "internalType": "address",
          "name": "user",
          "type": "address"
        },
        {
          "internalType": "enum SupplyChain.Role",
          "name": "role",
          "type": "uint8"
        }
      ],
      "name": "assignRole",
      "outputs": [],
      "stateMutability": "nonpayable",
      "type": "function"
    },
    {
      "inputs": [
        {
          "internalType": "string",
          "name": "uid",
          "type": "string"
        },
        {
          "internalType": "string",
          "name": "name",
          "type": "string"
        },
        {
          "internalType": "string",
          "name": "batchNo",
          "type": "string"
        },
        {
          "internalType": "string",
          "name": "description",
          "type": "string"
        },
        {
          "internalType": "uint256",
          "name": "manufactureDate",
          "type": "uint256"
        }
      ],
      "name": "createProduct",
      "outputs": [],
      "stateMutability": "nonpayable",
      "type": "function"
    },
    {
      "inputs": [],
      "name": "deliveredProducts",
      "outputs": [
        {
          "internalType": "uint256",
          "name": "",
          "type": "uint256"
        }
      ],
      "stateMutability": "view",
      "type": "function"
    },
    {
      "inputs": [],
      "name": "getAllProductUIDs",
      "outputs": [
        {
          "internalType": "string[]",
          "name": "",
          "type": "string[]"
        }
      ],
      "stateMutability": "view",
      "type": "function"
    },
    {
      "inputs": [],
      "name": "getAllProducts",
      "outputs": [
        {
          "components": [
            {
              "internalType": "uint256",
              "name": "id",
              "type": "uint256"
            },
            {
              "internalType": "string",
              "name": "uid",
              "type": "string"
            },
            {
              "internalType": "string",
              "name": "name",
              "type": "string"
            },
            {
              "internalType": "string",
              "name": "batchNo",
              "type": "string"
            },
            {
              "internalType": "string",
              "name": "description",
              "type": "string"
            },
            {
              "internalType": "uint256",
              "name": "manufactureDate",
              "type": "uint256"
            },
            {
              "internalType": "address",
              "name": "manufacturer",
              "type": "address"
            },
            {
              "internalType": "address",
              "name": "currentOwner",
              "type": "address"
            },
            {
              "internalType": "uint8",
              "name": "qualityScore",
              "type": "uint8"
            },
            {
              "internalType": "bool",
              "name": "inspectionRequired",
              "type": "bool"
            },
            {
              "internalType": "enum SupplyChain.ProductStatus",
              "name": "status",
              "type": "uint8"
            },
            {
              "internalType": "bool",
              "name": "exists",
              "type": "bool"
            },
            {
              "internalType": "uint256",
              "name": "recallTimestamp",
              "type": "uint256"
            },
            {
              "internalType": "string",
              "name": "recallReason",
              "type": "string"
            }
          ],
          "internalType": "struct SupplyChain.Product[]",
          "name": "",
          "type": "tuple[]"
        }
      ],
      "stateMutability": "view",
      "type": "function"
    },
    {
      "inputs": [
        {
          "internalType": "string",
          "name": "uid",
          "type": "string"
        }
      ],
      "name": "getCurrentOwner",
      "outputs": [
        {
          "internalType": "address",
          "name": "",
          "type": "address"
        }
      ],
      "stateMutability": "view",
      "type": "function"
    },
    {
      "inputs": [],
      "name": "getDashboardStats",
      "outputs": [
        {
          "internalType": "uint256",
          "name": "total",
          "type": "uint256"
        },
        {
          "internalType": "uint256",
          "name": "approved",
          "type": "uint256"
        },
        {
          "internalType": "uint256",
          "name": "inspection",
          "type": "uint256"
        },
        {
          "internalType": "uint256",
          "name": "rejected",
          "type": "uint256"
        },
        {
          "internalType": "uint256",
          "name": "delivered",
          "type": "uint256"
        },
        {
          "internalType": "uint256",
          "name": "recalled",
          "type": "uint256"
        }
      ],
      "stateMutability": "view",
      "type": "function"
    },
    {
      "inputs": [
        {
          "internalType": "string",
          "name": "uid",
          "type": "string"
        }
      ],
      "name": "getDocuments",
      "outputs": [
        {
          "components": [
            {
              "internalType": "enum SupplyChain.DocumentType",
              "name": "documentType",
              "type": "uint8"
            },
            {
              "internalType": "string",
              "name": "fileName",
              "type": "string"
            },
            {
              "internalType": "string",
              "name": "ipfsCID",
              "type": "string"
            },
            {
              "internalType": "uint256",
              "name": "uploadedAt",
              "type": "uint256"
            },
            {
              "internalType": "address",
              "name": "uploadedBy",
              "type": "address"
            }
          ],
          "internalType": "struct SupplyChain.Document[]",
          "name": "",
          "type": "tuple[]"
        }
      ],
      "stateMutability": "view",
      "type": "function"
    },
    {
      "inputs": [
        {
          "internalType": "string",
          "name": "uid",
          "type": "string"
        }
      ],
      "name": "getManufacturer",
      "outputs": [
        {
          "internalType": "address",
          "name": "",
          "type": "address"
        }
      ],
      "stateMutability": "view",
      "type": "function"
    },
    {
      "inputs": [],
      "name": "getMyRole",
      "outputs": [
        {
          "internalType": "enum SupplyChain.Role",
          "name": "",
          "type": "uint8"
        }
      ],
      "stateMutability": "view",
      "type": "function"
    },
    {
      "inputs": [
        {
          "internalType": "string",
          "name": "uid",
          "type": "string"
        }
      ],
      "name": "getProduct",
      "outputs": [
        {
          "components": [
            {
              "internalType": "uint256",
              "name": "id",
              "type": "uint256"
            },
            {
              "internalType": "string",
              "name": "uid",
              "type": "string"
            },
            {
              "internalType": "string",
              "name": "name",
              "type": "string"
            },
            {
              "internalType": "string",
              "name": "batchNo",
              "type": "string"
            },
            {
              "internalType": "string",
              "name": "description",
              "type": "string"
            },
            {
              "internalType": "uint256",
              "name": "manufactureDate",
              "type": "uint256"
            },
            {
              "internalType": "address",
              "name": "manufacturer",
              "type": "address"
            },
            {
              "internalType": "address",
              "name": "currentOwner",
              "type": "address"
            },
            {
              "internalType": "uint8",
              "name": "qualityScore",
              "type": "uint8"
            },
            {
              "internalType": "bool",
              "name": "inspectionRequired",
              "type": "bool"
            },
            {
              "internalType": "enum SupplyChain.ProductStatus",
              "name": "status",
              "type": "uint8"
            },
            {
              "internalType": "bool",
              "name": "exists",
              "type": "bool"
            },
            {
              "internalType": "uint256",
              "name": "recallTimestamp",
              "type": "uint256"
            },
            {
              "internalType": "string",
              "name": "recallReason",
              "type": "string"
            }
          ],
          "internalType": "struct SupplyChain.Product",
          "name": "",
          "type": "tuple"
        }
      ],
      "stateMutability": "view",
      "type": "function"
    },
    {
      "inputs": [],
      "name": "getProductCount",
      "outputs": [
        {
          "internalType": "uint256",
          "name": "",
          "type": "uint256"
        }
      ],
      "stateMutability": "view",
      "type": "function"
    },
    {
      "inputs": [
        {
          "internalType": "string",
          "name": "uid",
          "type": "string"
        }
      ],
      "name": "getProductHistory",
      "outputs": [
        {
          "components": [
            {
              "internalType": "address",
              "name": "actor",
              "type": "address"
            },
            {
              "internalType": "string",
              "name": "action",
              "type": "string"
            },
            {
              "internalType": "uint256",
              "name": "timestamp",
              "type": "uint256"
            }
          ],
          "internalType": "struct SupplyChain.ProductHistory[]",
          "name": "",
          "type": "tuple[]"
        }
      ],
      "stateMutability": "view",
      "type": "function"
    },
    {
      "inputs": [
        {
          "internalType": "string",
          "name": "uid",
          "type": "string"
        }
      ],
      "name": "getProductStatus",
      "outputs": [
        {
          "internalType": "enum SupplyChain.ProductStatus",
          "name": "",
          "type": "uint8"
        }
      ],
      "stateMutability": "view",
      "type": "function"
    },
    {
      "inputs": [
        {
          "internalType": "string",
          "name": "uid",
          "type": "string"
        }
      ],
      "name": "getQualityReports",
      "outputs": [
        {
          "components": [
            {
              "internalType": "uint8",
              "name": "packaging",
              "type": "uint8"
            },
            {
              "internalType": "uint8",
              "name": "labeling",
              "type": "uint8"
            },
            {
              "internalType": "uint8",
              "name": "temperature",
              "type": "uint8"
            },
            {
              "internalType": "uint8",
              "name": "physicalCondition",
              "type": "uint8"
            },
            {
              "internalType": "uint8",
              "name": "totalScore",
              "type": "uint8"
            },
            {
              "internalType": "bool",
              "name": "approved",
              "type": "bool"
            },
            {
              "internalType": "string",
              "name": "remarks",
              "type": "string"
            },
            {
              "internalType": "address",
              "name": "inspector",
              "type": "address"
            },
            {
              "internalType": "uint256",
              "name": "timestamp",
              "type": "uint256"
            }
          ],
          "internalType": "struct SupplyChain.QualityReport[]",
          "name": "",
          "type": "tuple[]"
        }
      ],
      "stateMutability": "view",
      "type": "function"
    },
    {
      "inputs": [
        {
          "internalType": "string",
          "name": "uid",
          "type": "string"
        }
      ],
      "name": "getQualityScore",
      "outputs": [
        {
          "internalType": "uint8",
          "name": "",
          "type": "uint8"
        }
      ],
      "stateMutability": "view",
      "type": "function"
    },
    {
      "inputs": [
        {
          "internalType": "address",
          "name": "user",
          "type": "address"
        }
      ],
      "name": "getRole",
      "outputs": [
        {
          "internalType": "enum SupplyChain.Role",
          "name": "",
          "type": "uint8"
        }
      ],
      "stateMutability": "view",
      "type": "function"
    },
    {
      "inputs": [
        {
          "internalType": "string",
          "name": "uid",
          "type": "string"
        },
        {
          "internalType": "address",
          "name": "newOwner",
          "type": "address"
        }
      ],
      "name": "initiateTransfer",
      "outputs": [],
      "stateMutability": "nonpayable",
      "type": "function"
    },
    {
      "inputs": [],
      "name": "inspectionProducts",
      "outputs": [
        {
          "internalType": "uint256",
          "name": "",
          "type": "uint256"
        }
      ],
      "stateMutability": "view",
      "type": "function"
    },
    {
      "inputs": [
        {
          "internalType": "string",
          "name": "uid",
          "type": "string"
        },
        {
          "internalType": "uint8",
          "name": "packaging",
          "type": "uint8"
        },
        {
          "internalType": "uint8",
          "name": "labeling",
          "type": "uint8"
        },
        {
          "internalType": "uint8",
          "name": "temperature",
          "type": "uint8"
        },
        {
          "internalType": "uint8",
          "name": "physicalCondition",
          "type": "uint8"
        },
        {
          "internalType": "string",
          "name": "remarks",
          "type": "string"
        }
      ],
      "name": "inspectionResult",
      "outputs": [],
      "stateMutability": "nonpayable",
      "type": "function"
    },
    {
      "inputs": [
        {
          "internalType": "string",
          "name": "",
          "type": "string"
        }
      ],
      "name": "pendingTransfers",
      "outputs": [
        {
          "internalType": "address",
          "name": "from",
          "type": "address"
        },
        {
          "internalType": "address",
          "name": "to",
          "type": "address"
        },
        {
          "internalType": "bool",
          "name": "exists",
          "type": "bool"
        }
      ],
      "stateMutability": "view",
      "type": "function"
    },
    {
      "inputs": [
        {
          "internalType": "string",
          "name": "",
          "type": "string"
        }
      ],
      "name": "products",
      "outputs": [
        {
          "internalType": "uint256",
          "name": "id",
          "type": "uint256"
        },
        {
          "internalType": "string",
          "name": "uid",
          "type": "string"
        },
        {
          "internalType": "string",
          "name": "name",
          "type": "string"
        },
        {
          "internalType": "string",
          "name": "batchNo",
          "type": "string"
        },
        {
          "internalType": "string",
          "name": "description",
          "type": "string"
        },
        {
          "internalType": "uint256",
          "name": "manufactureDate",
          "type": "uint256"
        },
        {
          "internalType": "address",
          "name": "manufacturer",
          "type": "address"
        },
        {
          "internalType": "address",
          "name": "currentOwner",
          "type": "address"
        },
        {
          "internalType": "uint8",
          "name": "qualityScore",
          "type": "uint8"
        },
        {
          "internalType": "bool",
          "name": "inspectionRequired",
          "type": "bool"
        },
        {
          "internalType": "enum SupplyChain.ProductStatus",
          "name": "status",
          "type": "uint8"
        },
        {
          "internalType": "bool",
          "name": "exists",
          "type": "bool"
        },
        {
          "internalType": "uint256",
          "name": "recallTimestamp",
          "type": "uint256"
        },
        {
          "internalType": "string",
          "name": "recallReason",
          "type": "string"
        }
      ],
      "stateMutability": "view",
      "type": "function"
    },
    {
      "inputs": [
        {
          "internalType": "string",
          "name": "uid",
          "type": "string"
        },
        {
          "internalType": "uint8",
          "name": "packaging",
          "type": "uint8"
        },
        {
          "internalType": "uint8",
          "name": "labeling",
          "type": "uint8"
        },
        {
          "internalType": "uint8",
          "name": "temperature",
          "type": "uint8"
        },
        {
          "internalType": "uint8",
          "name": "physicalCondition",
          "type": "uint8"
        },
        {
          "internalType": "string",
          "name": "remarks",
          "type": "string"
        }
      ],
      "name": "qualityCheck",
      "outputs": [],
      "stateMutability": "nonpayable",
      "type": "function"
    },
    {
      "inputs": [
        {
          "internalType": "string",
          "name": "uid",
          "type": "string"
        },
        {
          "internalType": "string",
          "name": "reason",
          "type": "string"
        }
      ],
      "name": "recallProduct",
      "outputs": [],
      "stateMutability": "nonpayable",
      "type": "function"
    },
    {
      "inputs": [],
      "name": "recalledProducts",
      "outputs": [
        {
          "internalType": "uint256",
          "name": "",
          "type": "uint256"
        }
      ],
      "stateMutability": "view",
      "type": "function"
    },
    {
      "inputs": [],
      "name": "rejectedProducts",
      "outputs": [
        {
          "internalType": "uint256",
          "name": "",
          "type": "uint256"
        }
      ],
      "stateMutability": "view",
      "type": "function"
    },
    {
      "inputs": [
        {
          "internalType": "string",
          "name": "uid",
          "type": "string"
        }
      ],
      "name": "requiresInspection",
      "outputs": [
        {
          "internalType": "bool",
          "name": "",
          "type": "bool"
        }
      ],
      "stateMutability": "view",
      "type": "function"
    },
    {
      "inputs": [
        {
          "internalType": "address",
          "name": "",
          "type": "address"
        }
      ],
      "name": "roles",
      "outputs": [
        {
          "internalType": "enum SupplyChain.Role",
          "name": "",
          "type": "uint8"
        }
      ],
      "stateMutability": "view",
      "type": "function"
    },
    {
      "inputs": [
        {
          "internalType": "string",
          "name": "uid",
          "type": "string"
        },
        {
          "internalType": "enum SupplyChain.DocumentType",
          "name": "documentType",
          "type": "uint8"
        },
        {
          "internalType": "string",
          "name": "fileName",
          "type": "string"
        },
        {
          "internalType": "string",
          "name": "ipfsCID",
          "type": "string"
        }
      ],
      "name": "uploadDocument",
      "outputs": [],
      "stateMutability": "nonpayable",
      "type": "function"
    }
  ],
  "bytecode": "0x60a08060405234603057336080526131559081610036823960805181818161044001528181610549015261189e0152f35b600080fdfe6080604052600436101561001257600080fd5b60003560e01c80630186a4231461276757806302ee3a521461252f57806305a8db5a1461221057806314b4951b146121f2578063155066a0146121d457806317aaba5914611db35780631f2149af14611d2e57806328ac2df214611cdd5780632a3bd17f14611c6f5780632c7c112114611c1c578063352291c114611b335780633b0a6139146119a65780633f0aa29c146119885780634427673314610fd55780634a348da91461196a578063630a195b1461187257806368111cce146117195780636d136f621461146a5780636d5867c51461144c5780636e3b47fc1461141a5780637a42d792146113fc578063842af60d1461101b5780639937464214610fd55780639d804cee14610dfa5780639f62af0714610d85578063a2f6805c14610d3d578063ce1ac6f8146108f6578063d4f5045314610781578063d55a772d146106fc578063d835f114146104f4578063efc2f7a61461046f578063f851a4401461042a5763fd37e39c1461018757600080fd5b34610425576080366003190112610425576004356001600160401b038111610425576101b7903690600401612974565b602435906004821015610425576044356001600160401b038111610425576101e3903690600401612974565b916064356001600160401b03811161042557610203903690600401612974565b60405161023660ff6007865193602081818a019661022281838a6129ca565b810184815203019020015460b81c16612d98565b60405160208186516102498183876129ca565b8101600781520301902060018060a01b03600782015416331490811561040e575b50156103d8576020610287916040518093819288519283916129ca565b81016009815203019020926102a8604051936102a285612938565b8461309c565b60208301928584526040810192835260608101944286526080820190338252805490600160401b8210156103c257600182018082558210156103ac57600052600560206000209102019151906004821015610396577fa1099dd93f4553cef201088a4429240a31c3705785abecc51dae3ce04002f73b9661035061037c966103466103919960049660ff80198a541691161788555160018801612e02565b5160028601612e02565b51600384015551910180546001600160a01b0319166001600160a01b039290921691909117905561307c565b92604051918291602083526020830190612acb565b0390a2005b634e487b7160e01b600052602160045260246000fd5b634e487b7160e01b600052603260045260246000fd5b634e487b7160e01b600052604160045260246000fd5b60405162461bcd60e51b815260206004820152600e60248201526d139bdd08185d5d1a1bdc9a5e995960921b6044820152606490fd5b600601546001600160a01b0316331490503861026a565b600080fd5b34610425576000366003190112610425576040517f00000000000000000000000000000000000000000000000000000000000000006001600160a01b03168152602090f35b34610425576020366003190112610425576004356001600160401b038111610425576104b960206104a66060933690600401612974565b81604051938285809451938492016129ca565b8101600b81520301902060ff6001808060a01b0383541692015460405192835260018060a01b038116602084015260a01c1615156040820152f35b34610425576040366003190112610425576004356001600160401b03811161042557610524903690600401612974565b6024356001600160401b03811161042557610543903690600401612974565b610577337f00000000000000000000000000000000000000000000000000000000000000006001600160a01b0316146130a8565b6040519061059760ff60078551946020818189019761022281838b6129ca565b60405160208185516105aa8183886129ca565b8101600781520301902090600782019260ff845460b01c16600a811015610396576009146106b75761064760206106a4927fbde24dc0826633070c7f4744c8364723423b6817caaa36a1db2ce76176f19ff1968661060e8760096103919a01612e02565b4260089190910155805460ff60b01b1916600960b01b17905560025461063390612ffc565b600255604051809381928a519283916129ca565b810160088152030190209461069f6040516106618161291d565b33815260409788516106738a82612953565b601081526f141c9bd91d58dd08149958d85b1b195960821b60208201526020830152428983015261300b565b61307c565b9351918291602083526020830190612acb565b60405162461bcd60e51b815260206004820152601860248201527f50726f6475637420616c726561647920726563616c6c656400000000000000006044820152606490fd5b34610425576020366003190112610425576004356001600160401b0381116104255761072e6020913690600401612974565b60076040519161074e60ff8383519587818187019861022281838c6129ca565b610760604051938492519283916129ca565b8201818152829003830190912001546040516001600160a01b039091168152f35b34610425576020366003190112610425576004356001600160401b0381116104255760206107b66107e6923690600401612974565b604051906107d560ff600783519486818187019761022281838b6129ca565b6040519384928392519283916129ca565b810160088152030190208054906107fc82612c9b565b9161080a6040519384612953565b80835260208301809260005260206000206000915b8383106108b157848660405191829160208301906020845251809152604083019060408160051b85010192916000905b82821061085e57505050500390f35b919360019193955060208091603f19898203018552875190848060a01b03825116815260408061089b858501516060878601526060850190612acb565b930151910152960192019201859493919261084f565b600360206001926040516108c48161291d565b848060a01b0386541681526108da858701612a27565b838201526002860154604082015281520192019201919061081f565b346104255761090436612bf0565b9193929433600052600660205260ff60406000205416600681101561039657600261092f9114612d5c565b60405161094e60ff60078451936020818188019661022281838a6129ca565b60ff85169560198711610d055760ff88169460198611610cce5760ff82169860198a11610c945760ff86169660198811610c5d576007604051602081895161099781838c6129ca565b810184815203019020019360ff855460b01c16600a81101561039657610c24577f62611c6f04b7960b872b3c049e9a89dce35c604a47c286a0a70ee23b46fd0a5c9a6109fc610b7e996109f7610a6a946109f760409f98610a8499612dd8565b612dd8565b9260ff84169a60648c149e610a1f60208f8d8d91519384928392519283916129ca565b8101600a815203019020928e5194610a3686612901565b855260208501528d84015260608301528a60808301528d60a08301528560c08301523360e083015242610100830152612f0d565b835460ff60a01b191660a09190911b60ff60a01b16178355565b8815610b8c57506020610b1892610ac692610aa0600154612ffc565b600155805461ffff60a81b1916600360b01b1790558751855190938492829084906129ca565b81016008815203019020855190610adc8261291d565b338252868051610aec8282612953565b601081526f145d585b1a5d1e48105c1c1c9bdd995960821b60208201526020840152429083015261300b565b610b218161307c565b7f0f1c687db745f4d4c8dc68f364e0760413f41f61f7b4241a654e41892a57b1a6600080a25b610b508161307c565b7fd2b9f63b43719203d1093c9969089173bd2165aec945d566f2fd40bac53102eb60208651868152a261307c565b9382519182526020820152a2005b906020610bf193610bc992610ba2600354612ffc565b600355805461ffff60a81b191661020160a81b1790558851865190938492829084906129ca565b81016008815203019020865191610bdf8361291d565b3383526020830152428783015261300b565b610bfa8161307c565b7f6150b619836e794a71e0841f9108a7fea6a4333af1108f2c12b5d28a5eac9fdb600080a2610b47565b60405162461bcd60e51b8152602060048201526011602482015270105b1c9958591e481a5b9cdc1958dd1959607a1b6044820152606490fd5b60405162461bcd60e51b815260206004820152600f60248201526e506879736963616c206d617820323560881b6044820152606490fd5b60405162461bcd60e51b815260206004820152601260248201527154656d7065726174757265206d617820323560701b6044820152606490fd5b60405162461bcd60e51b815260206004820152600f60248201526e4c6162656c696e67206d617820323560881b6044820152606490fd5b60405162461bcd60e51b815260206004820152601060248201526f5061636b6167696e67206d617820323560801b6044820152606490fd5b346104255760003660031901126104255760c06000546001546003546002546004549160055493604051958652602086015260408501526060840152608083015260a0820152f35b34610425576020366003190112610425576004356001600160401b0381116104255760ff6007610ddc6020610dbf81953690600401612974565b604051906107d5868683519486818187019761022281838b6129ca565b810184815203019020015460b01c16610df86040518092612af0565bf35b34610425576020366003190112610425576004356001600160401b0381116104255760206104a6610e2f923690600401612974565b8101600a815203019020805490610e4582612c9b565b91610e536040519384612953565b80835260208301809260005260206000206000915b838310610f4a57848660405191829160208301906020845251809152604083019060408160051b85010192916000905b828210610ea757505050500390f35b919360019193955060208091603f1989820301855287519060ff825116815260ff83830151168382015260ff604083015116604082015260ff606083015116606082015260ff608083015116608082015260a0820151151560a082015261010080610f2360c085015161012060c0860152610120850190612acb565b93878060a01b0360e08201511660e085015201519101529601920192018594939192610e98565b60046020600192604051610f5d81612901565b60ff86548181168352818160081c1685840152818160101c166040840152818160181c1660608401528181861c16608084015260281c16151560a0820152610fa6858701612a27565b60c0820152848060a01b0360028701541660e08201526003860154610100820152815201920192019190610e68565b34610425576020366003190112610425576001600160a01b03610ff6612c72565b16600052600660205261101760ff6040600020541660405191829182612c88565b0390f35b34610425576040366003190112610425576004356001600160401b0381116104255761104b903690600401612974565b6024356001600160a01b03811691908290036104255760405161108060ff60078451936020818188019661022281838a6129ca565b600760405160208185516110958183886129ca565b8101848152030190200154336001600160a01b038216036113c2576110bb8415156130e1565b60ff600160405160208187516110d281838a6129ca565b8101600b815203019020015460a01c1661137d5760b01c60ff16600a811015610396576008146113455733600052600660205260ff6040600020541683600052600660205260ff60406000205416906006811015610396576001810361124f575060068110156103965760030361120a575b604051906111518261291d565b3382526001602083019285845261117c60206040830194848652604051809381928a519283916129ca565b600b90820190815203019020905181546001600160a01b03191660a084811b8590039290921617825593519101805492516001600160a81b03199093166001600160a01b03929092169190911791151590921b60ff60a01b1617905533906111e39061307c565b7fcacc282346753d2f375de14b9b4b6ac468ffc411065cec53fe7318de3130b0a9600080a4005b60405162461bcd60e51b815260206004820152601c60248201527f5472616e73666572206f6e6c7920746f204469737472696275746f72000000006044820152606490fd5b600381036112ad57506006811015610396576004146111445760405162461bcd60e51b815260206004820152601a60248201527f5472616e73666572206f6e6c7920746f2057617265686f7573650000000000006044820152606490fd5b600403611309576006811015610396576005146111445760405162461bcd60e51b815260206004820152601960248201527f5472616e73666572206f6e6c7920746f2052657461696c6572000000000000006044820152606490fd5b60405162461bcd60e51b8152602060048201526014602482015273151c985b9cd9995c881b9bdd08185b1b1bddd95960621b6044820152606490fd5b60405162461bcd60e51b815260206004820152601060248201526f14995a9958dd1959081c1c9bd91d58dd60821b6044820152606490fd5b60405162461bcd60e51b815260206004820152601860248201527f5472616e7366657220616c72656164792070656e64696e6700000000000000006044820152606490fd5b60405162461bcd60e51b815260206004820152601260248201527127b7363c9031bab93932b73a1037bbb732b960711b6044820152606490fd5b34610425576000366003190112610425576020600554604051908152f35b346104255760003660031901126104255733600052600660205261101760ff6040600020541660405191829182612c88565b34610425576000366003190112610425576020600354604051908152f35b34610425576020366003190112610425576004356001600160401b0381116104255761149a903690600401612974565b6040516114b960ff60078451936020818188019661022281838a6129ca565b600160405160208185516114ce8183886129ca565b8101600b815203019020015460ff8160a01c16156116de57336001600160a01b03909116036116aa576007604051602081855161150c8183886129ca565b810184815203019020018054336001600160a01b03198216811783556000908152600660208190526040909120546001600160a01b039092169360ff90921692908310156103965760206001926115f4928560036000971487146116645750805460ff60b01b191660b286901b1790555b6040518281895161158f8183876129ca565b810160088152030190206115e56040516115a88161291d565b33815260409283516115ba8582612953565b6011815270151c985b9cd9995c881058d8d95c1d1959607a1b8782015286830152428483015261300b565b518093819289519283916129ca565b8101600b8152030190208281550155339061160e8361307c565b7f6840904f5b31827f74e1497360da245f56e530c8c3de3163a2d31f11493273c6600080a461163d339161307c565b7f77f9b14bccb831f84bd283a53852b3ca219a25802484df3143b211729af0cc83600080a3005b6004811487146116855750805460ff60b01b1916600560b01b17905561157d565b600514611693575b5061157d565b805460ff60b01b1916600360b11b1790558761168d565b60405162461bcd60e51b815260206004820152600c60248201526b2737ba103932b1b2b4bb32b960a11b6044820152606490fd5b60405162461bcd60e51b81526020600482015260136024820152722737903832b73234b733903a3930b739b332b960691b6044820152606490fd5b34610425576020366003190112610425576004356001600160401b038111610425576117796020611751611017933690600401612974565b611759612cb2565b50604051906107d560ff600783519486818187019761022281838b6129ca565b81016007815203019020611858600960405192611795846128e5565b805484526117a560018201612a27565b60208501526117b660028201612a27565b60408501526117c760038201612a27565b60608501526117d860048201612a27565b6080850152600581015460a085015260018060a01b0360068201541660c085015260ff600782015460018060a01b03811660e0870152818160a01c16610100870152818160a81c16151561012087015261183b828260b01c166101408801612d50565b60b81c161515610160850152600881015461018085015201612a27565b6101a0820152604051918291602083526020830190612afd565b346104255760403660031901126104255761188b612c72565b602435906006821015610425576118cc337f00000000000000000000000000000000000000000000000000000000000000006001600160a01b0316146130a8565b6001600160a01b0316906118e18215156130e1565b60008115611936577f4ac36fa53f167ceb85964be512e01de2a3b8bdb9862f917da079deeeff689b389181846103919352600660205260408120905060ff1981541660ff831617905560405191829182612c88565b60405162461bcd60e51b815260206004820152600c60248201526b496e76616c696420726f6c6560a01b6044820152606490fd5b34610425576000366003190112610425576020600054604051908152f35b34610425576000366003190112610425576020600254604051908152f35b34610425576020366003190112610425576004356001600160401b0381116104255760206107b66119db923690600401612974565b810160098152030190208054906119f182612c9b565b916119ff6040519384612953565b80835260208301809260005260206000206000915b838310611ac95785856040519060208201926020835251809352604082019260408160051b840101919060005b818110611a4e5784840385f35b909192603f19858203018652835190815160048110156103965760019282602093928493526080611aa1611a8f8585015160a08786015260a0850190612acb565b60408501518482036040860152612acb565b926060810151606084015281878060a01b039101511691015295019601910194919094611a41565b60056020600192604051611adc81612938565b611aea60ff8754168261309c565b611af5858701612a27565b83820152611b0560028701612a27565b604082015260038601546060820152848060a01b036004870154166080820152815201920192019190611a14565b3461042557600036600319011261042557600c54611b5081612c9b565b90611b5e6040519283612953565b808252602082019081600c6000527fdf6966c971051c3d54ec59162606531493a51404a002842f56009d7e5cf4a8c76000915b838310611bff57848660405191829160208301906020845251809152604083019060408160051b85010192916000905b828210611bd057505050500390f35b91936001919395506020611bef8192603f198a82030186528851612acb565b9601920192018594939192611bc1565b600160208192611c0e85612a27565b815201920192019190611b91565b34610425576020366003190112610425576004356001600160401b0381116104255760ff6007611c566020610dbf81953690600401612974565b810184815203019020015460a81c166040519015158152f35b3461042557600036600319011261042557611017604051611c91606082612953565b602581527f446563656e7472616c697a656420537570706c7920436861696e204d616e6167602082015264195b595b9d60da1b6040820152604051918291602083526020830190612acb565b34610425576020366003190112610425576004356001600160401b0381116104255760ff6007611d176020610dbf81953690600401612974565b810184815203019020015460a01c16604051908152f35b34610425576020366003190112610425576004356001600160401b03811161042557611d606020913690600401612974565b600660405191611d8160ff600783519587818187019861022281838c6129ca565b611d93604051938492519283916129ca565b82019160078352838160018060a01b039403019020015416604051908152f35b346104255760a0366003190112610425576004356001600160401b03811161042557611de3903690600401612974565b6024356001600160401b03811161042557611e02903690600401612974565b906044356001600160401b03811161042557611e22903690600401612974565b6064356001600160401b03811161042557611e41903690600401612974565b9033600052600660205260ff604060002054166006811015610396576001611e699114612d5c565b60ff60076040516020818751611e828183858c016129ca565b810184815203019020015460b81c166121965782511561216257611ea7600054612ffc565b938460005560405194611eb9866128e5565b855283602086015260408501526060840152608083015260843560a08301523360c08301523360e083015260006101008301526000610120830152600061014083015260016101608301526000610180830152602060405192611f1c8285612953565b600084526101a0810193845260405182818551611f3d818360208a016129ca565b8101600781520301902081518155611f5c602083015160018301612e02565b611f6d604083015160028301612e02565b611f7e606083015160038301612e02565b611f8f608083015160048301612e02565b60a082810151600583015560c08301516006830180546001600160a01b0319166001600160a01b0392831617905560e08401516007840180546101008701516001600160a81b031990911692909316919091179190921b60ff60a01b1617815591610120810151835460ff60a81b191690151560a81b60ff60a81b1617835561014081015195600a87101561039657835461016083015160ff60b81b90151560b81b1660ff60b01b60b09990991b9890981661ffff60b01b19909116179690961790925561018090910151600882015592516000936120719190600901612e02565b600c54600160401b81101561214e578060016120909201600c55612d21565b61213a57906120a28361210993612e02565b604051818185516120b7818360208a016129ca565b81016008815203019020604051916120ce8361291d565b338352604051906120e0604083612953565b600f82526e141c9bd91d58dd0810dc99585d1959608a1b8183015283015242604083015261300b565b612113339161307c565b7f6276b46249f3ef9f8582903c6f0d43109febb82b3ec9f4dbd15662bb71ec9c7b8380a380f35b634e487b7160e01b84526004849052602484fd5b634e487b7160e01b84526041600452602484fd5b60405162461bcd60e51b815260206004820152600c60248201526b155251081c995c5d5a5c995960a21b6044820152606490fd5b60405162461bcd60e51b815260206004820152601660248201527550726f6475637420616c72656164792065786973747360501b6044820152606490fd5b34610425576000366003190112610425576020600454604051908152f35b34610425576000366003190112610425576020600154604051908152f35b346104255761221e36612bf0565b9194909433600052600660205260ff6040600020541660068110156103965760026122499114612d5c565b6040519461226860ff600788602081885161022281848c019e8f6129ca565b6007604051602081865161227d81838d6129ca565b810184815203019020019460ff865460b01c16600a811015610396576002036124ea5787836122ac8385612dd8565b906122b691612dd8565b906122c091612dd8565b9160ff83169860648a149460405180808c8a5180926122de926129ca565b8101600a815203602001902093604051936122f885612901565b60ff16845260ff16602084015260ff16604083015260ff1660608201528860808201528360a08201528560c08201523360e08201524261010082015261233d91612f0d565b845460ff60a01b191660a09190911b60ff60a01b1617845560001493602093612448937f726ae748bbbfc052abc3cf9a0290b861c28fd19c306f646bab0082a35d15d00696612452575084612415926123c29261239b600154612ffc565b600155805461ffff60a81b1916600360b01b179055604051855190938492829084906129ca565b81016008815203019020604051906123d98261291d565b338252604080516123ea8282612953565b6011815270125b9cdc1958dd1a5bdb8814185cdcd959607a1b8882015287840152429083015261300b565b61241e8161307c565b7f0f1c687db745f4d4c8dc68f364e0760413f41f61f7b4241a654e41892a57b1a6600080a261307c565b92604051908152a2005b90856124b79361248e92612467600254612ffc565b600255805461ffff60a81b1916600160b31b179055604051865190938492829084906129ca565b81016008815203019020604051916124a58361291d565b3383528683015242604083015261300b565b6124c08161307c565b7f37c34607624695c5b0582313b5ae5b777d3cb8dd978780e7a71e7642b212c18f600080a261307c565b60405162461bcd60e51b815260206004820152601760248201527f496e7370656374696f6e206e6f742072657175697265640000000000000000006044820152606490fd5b3461042557600036600319011261042557600c5461254c81612c9b565b9061255a6040519283612953565b808252601f1961256982612c9b565b0160005b8181106127505750506000905b8082106125e957826040518091602082016020835281518091526040830190602060408260051b8601019301916000905b8282106125ba57505050500390f35b919360019193955060206125d98192603f198a82030186528851612afd565b96019201920185949391926125ab565b6125f282612d21565b50604051815460009492612605826129ed565b91600181169081156127385750600114612703575b50506020818560076001969752030190206126e060096040519261263d846128e5565b8054845261264c868201612a27565b602085015261265d60028201612a27565b604085015261266e60038201612a27565b606085015261267f60048201612a27565b6080850152600581015460a0850152858060a01b0360068201541660c085015260ff6007820154878060a01b03811660e0870152818160a01c16610100870152818160a81c16151561012087015261183b828260b01c166101408801612d50565b6101a08201526126f08286612d3c565b526126fb8185612d3c565b50019061257a565b6000908152602081209095505b81861061272457508101935060208161261a565b600181602092548886015201950194612710565b60ff191684525050801515028101935060208161261a565b60209061275b612cb2565b8282870101520161256d565b34610425576020366003190112610425576004356001600160401b03811161042557612797903690600401612974565b60405181818093516020819301916127ae926129ca565b8101600781520360200190208054600182016127c990612a27565b916127d660028201612a27565b906127e360038201612a27565b906127f060048201612a27565b91600582015492600160a01b600190036006840154169060078401549260088501549460090161281f90612a27565b96604051998a998a5260208a016101c090526101c08a0161283f91612acb565b89810360408b015261285091612acb565b88810360608a015261286191612acb565b878103608089015261287291612acb565b9360a087015260c0860152600160a01b60019003811660e08601528060a01c60ff166101008601528060a81c60ff16151561012086015261014085018160b01c60ff16906128bf91612af0565b60b81c60ff1615156101608501526101808401528281036101a084015261101791612acb565b6101c081019081106001600160401b038211176103c257604052565b61012081019081106001600160401b038211176103c257604052565b606081019081106001600160401b038211176103c257604052565b60a081019081106001600160401b038211176103c257604052565b90601f801991011681019081106001600160401b038211176103c257604052565b81601f82011215610425578035906001600160401b0382116103c257604051926129a8601f8401601f191660200185612953565b8284526020838301011161042557816000926020809301838601378301015290565b60005b8381106129dd5750506000910152565b81810151838201526020016129cd565b90600182811c92168015612a1d575b6020831014612a0757565b634e487b7160e01b600052602260045260246000fd5b91607f16916129fc565b9060405191826000825492612a3b846129ed565b8084529360018116908115612aa95750600114612a62575b50612a6092500383612953565b565b90506000929192526020600020906000915b818310612a8d575050906020612a609282010138612a53565b6020919350806001915483858901015201910190918492612a74565b905060209250612a6094915060ff191682840152151560051b82010138612a53565b90602091612ae4815180928185528580860191016129ca565b601f01601f1916010190565b90600a8210156103965752565b612bed91815181526101a0612b62612b50612b3e612b2c60208701516101c060208801526101c0870190612acb565b60408701518682036040880152612acb565b60608601518582036060870152612acb565b60808501518482036080860152612acb565b9260a081015160a084015260018060a01b0360c08201511660c084015260018060a01b0360e08201511660e084015260ff610100820151166101008401526101208101511515610120840152612bc2610140820151610140850190612af0565b61016081015115156101608401526101808101516101808401520151906101a0818403910152612acb565b90565b9060c0600319830112610425576004356001600160401b0381116104255782612c1b91600401612974565b9160243560ff81168103610425579160443560ff81168103610425579160643560ff81168103610425579160843560ff81168103610425579160a435906001600160401b03821161042557612bed91600401612974565b600435906001600160a01b038216820361042557565b9190602083019260068210156103965752565b6001600160401b0381116103c25760051b60200190565b60405190612cbf826128e5565b60606101a083600081528260208201528260408201528280820152826080820152600060a0820152600060c0820152600060e0820152600061010082015260006101208201526000610140820152600061016082015260006101808201520152565b600c548110156103ac57600c60005260206000200190600090565b80518210156103ac5760209160051b010190565b600a8210156103965752565b15612d6357565b60405162461bcd60e51b815260206004820152600d60248201526c1058d8d95cdcc819195b9a5959609a1b6044820152606490fd5b15612d9f57565b60405162461bcd60e51b8152602060048201526011602482015270141c9bd91d58dd081b9bdd08199bdd5b99607a1b6044820152606490fd5b9060ff8091169116019060ff8211612dec57565b634e487b7160e01b600052601160045260246000fd5b91909182516001600160401b0381116103c257612e1f82546129ed565b601f8111612ec5575b506020601f8211600114612e635781929394600092612e58575b50508160011b916000199060031b1c1916179055565b015190503880612e42565b601f1982169083600052806000209160005b818110612ead57509583600195969710612e94575b505050811b019055565b015160001960f88460031b161c19169055388080612e8a565b9192602060018192868b015181550194019201612e75565b826000526020600020601f830160051c81019160208410612f03575b601f0160051c01905b818110612ef75750612e28565b60008155600101612eea565b9091508190612ee1565b805490600160401b8210156103c257600182018082558210156103ac576003916101009160005260206000209060021b019260ff81511684549061ff00602084015160081b169162ff0000604085015160101b169063ff000000606086015160181b169164ff00000000608087015160201b169365ff000000000060a0880151151560281b169565ff0000000000199364ff00000000199263ff000000199162ffffff19161716171617161717178455612fce60c082015160018601612e02565b60e08101516002850180546001600160a01b0319166001600160a01b03929092169190911790550151910155565b6000198114612dec5760010190565b805490600160401b8210156103c257600182018082558210156103ac57600291604091600052600360206000209102019260018060a01b0360018060a01b03825116166bffffffffffffffffffffffff60a01b855416178455613075602082015160018601612e02565b0151910155565b613094906020604051928284809451938492016129ca565b810103902090565b60048210156103965752565b156130af57565b60405162461bcd60e51b815260206004820152600a60248201526927b7363c9030b236b4b760b11b6044820152606490fd5b156130e857565b60405162461bcd60e51b815260206004820152600f60248201526e496e76616c6964206164647265737360881b6044820152606490fdfea26469706673582212205d8ac8965a005177b4801818e5864d219940fe923162277d288366f4d16bc31264736f6c634300081c0033",
  "linkReferences": {},
  "deployedLinkReferences": {},
  "immutableReferences": {
    "6": [
      {
        "length": 32,
        "start": 1088
      },
      {
        "length": 32,
        "start": 1353
      },
      {
        "length": 32,
        "start": 6302
      }
    ]
  },
  "inputSourceName": "project/contracts/supplychain.sol",
  "buildInfoId": "solc-0_8_28-4a007396272be281b11e8bccd8b0faf3c9baf9ca"
}