{
  "_format": "hh3-artifact-1",
  "contractName": "SupplyChain",
  "sourceName": "contracts/supplychain.sol",
  "abi": [
    {
      "inputs": [],
      "stateMutability": "nonpayable",
      "type": "constructor"
    },
    {
      "anonymous": false,
      "inputs": [
        {
          "indexed": true,
          "internalType": "string",
          "name": "uid",
          "type": "string"
        },
        {
          "indexed": false,
          "internalType": "string",
          "name": "fileName",
          "type": "string"
        }
      ],
      "name": "DocumentUploaded",
      "type": "event"
    },
    {
      "anonymous": false,
      "inputs": [
        {
          "indexed": true,
          "internalType": "string",
          "name": "uid",
          "type": "string"
        },
        {
          "indexed": false,
          "internalType": "uint8",
          "name": "score",
          "type": "uint8"
        }
      ],
      "name": "InspectionCompleted",
      "type": "event"
    },
    {
      "anonymous": false,
      "inputs": [
        {
          "indexed": true,
          "internalType": "string",
          "name": "uid",
          "type": "string"
        }
      ],
      "name": "InspectionRequired",
      "type": "event"
    },
    {
      "anonymous": false,
      "inputs": [
        {
          "indexed": true,
          "internalType": "string",
          "name": "uid",
          "type": "string"
        },
        {
          "indexed": true,
          "internalType": "address",
          "name": "from",
          "type": "address"
        },
        {
          "indexed": true,
          "internalType": "address",
          "name": "to",
          "type": "address"
        }
      ],
      "name": "OwnershipTransferred",
      "type": "event"
    },
    {
      "anonymous": false,
      "inputs": [
        {
          "indexed": true,
          "internalType": "address",
          "name": "wallet",
          "type": "address"
        },
        {
          "indexed": false,
          "internalType": "string",
          "name": "companyName",
          "type": "string"
        },
        {
          "indexed": false,
          "internalType": "enum SupplyChain.Role",
          "name": "role",
          "type": "uint8"
        }
      ],
      "name": "ParticipantRegistered",
      "type": "event"
    },
    {
      "anonymous": false,
      "inputs": [
        {
          "indexed": true,
          "internalType": "address",
          "name": "wallet",
          "type": "address"
        },
        {
          "indexed": false,
          "internalType": "bool",
          "name": "isActive",
          "type": "bool"
        }
      ],
      "name": "ParticipantStatusUpdated",
      "type": "event"
    },
    {
      "anonymous": false,
      "inputs": [
        {
          "indexed": true,
          "internalType": "string",
          "name": "uid",
          "type": "string"
        }
      ],
      "name": "ProductApproved",
      "type": "event"
    },
    {
      "anonymous": false,
      "inputs": [
        {
          "indexed": true,
          "internalType": "string",
          "name": "uid",
          "type": "string"
        },
        {
          "indexed": true,
          "internalType": "address",
          "name": "manufacturer",
          "type": "address"
        }
      ],
      "name": "ProductCreated",
      "type": "event"
    },
    {
      "anonymous": false,
      "inputs": [
        {
          "indexed": true,
          "internalType": "string",
          "name": "uid",
          "type": "string"
        }
      ],
      "name": "ProductMovedToInspection",
      "type": "event"
    },
    {
      "anonymous": false,
      "inputs": [
        {
          "indexed": true,
          "internalType": "string",
          "name": "uid",
          "type": "string"
        }
      ],
      "name": "ProductRejected",
      "type": "event"
    },
    {
      "anonymous": false,
      "inputs": [
        {
          "indexed": true,
          "internalType": "string",
          "name": "uid",
          "type": "string"
        },
        {
          "indexed": false,
          "internalType": "uint8",
          "name": "score",
          "type": "uint8"
        }
      ],
      "name": "QualityChecked",
      "type": "event"
    },
    {
      "anonymous": false,
      "inputs": [
        {
          "indexed": true,
          "internalType": "string",
          "name": "uid",
          "type": "string"
        },
        {
          "indexed": false,
          "internalType": "uint8",
          "name": "totalScore",
          "type": "uint8"
        },
        {
          "indexed": false,
          "internalType": "bool",
          "name": "approved",
          "type": "bool"
        }
      ],
      "name": "QualityReportGenerated",
      "type": "event"
    },
    {
      "anonymous": false,
      "inputs": [
        {
          "indexed": true,
          "internalType": "address",
          "name": "user",
          "type": "address"
        },
        {
          "indexed": false,
          "internalType": "enum SupplyChain.Role",
          "name": "role",
          "type": "uint8"
        }
      ],
      "name": "RoleAssigned",
      "type": "event"
    },
    {
      "anonymous": false,
      "inputs": [
        {
          "indexed": true,
          "internalType": "string",
          "name": "uid",
          "type": "string"
        },
        {
          "indexed": true,
          "internalType": "address",
          "name": "to",
          "type": "address"
        }
      ],
      "name": "TransferAccepted",
      "type": "event"
    },
    {
      "anonymous": false,
      "inputs": [
        {
          "indexed": true,
          "internalType": "string",
          "name": "uid",
          "type": "string"
        },
        {
          "indexed": true,
          "internalType": "address",
          "name": "from",
          "type": "address"
        },
        {
          "indexed": true,
          "internalType": "address",
          "name": "to",
          "type": "address"
        }
      ],
      "name": "TransferInitiated",
      "type": "event"
    },
    {
      "inputs": [],
      "name": "PROJECT_NAME",
      "outputs": [
        {
          "internalType": "string",
          "name": "",
          "type": "string"
        }
      ],
      "stateMutability": "view",
      "type": "function"
    },
    {
      "inputs": [
        {
          "internalType": "string",
          "name": "uid",
          "type": "string"
        }
      ],
      "name": "acceptTransfer",
      "outputs": [],
      "stateMutability": "nonpayable",
      "type": "function"
    },
    {
      "inputs": [],
      "name": "admin",
      "outputs": [
        {
          "internalType": "address",
          "name": "",
          "type": "address"
        }
      ],
      "stateMutability": "view",
      "type": "function"
    },
    {
      "inputs": [],
      "name": "approvedProducts",
      "outputs": [
        {
          "internalType": "uint256",
          "name": "",
          "type": "uint256"
        }
      ],
      "stateMutability": "view",
      "type": "function"
    },
    {
      "inputs": [
        {
          "internalType": "address",
          "name": "user",
          "type": "address"
        },
        {
          "internalType": "enum SupplyChain.Role",
          "name": "role",
          "type": "uint8"
        }
      ],
      "name": "assignRole",
      "outputs": [],
      "stateMutability": "nonpayable",
      "type": "function"
    },
    {
      "inputs": [
        {
          "internalType": "string",
          "name": "uid",
          "type": "string"
        },
        {
          "internalType": "string",
          "name": "name",
          "type": "string"
        },
        {
          "internalType": "string",
          "name": "batchNo",
          "type": "string"
        },
        {
          "internalType": "string",
          "name": "description",
          "type": "string"
        },
        {
          "internalType": "uint256",
          "name": "manufactureDate",
          "type": "uint256"
        }
      ],
      "name": "createProduct",
      "outputs": [],
      "stateMutability": "nonpayable",
      "type": "function"
    },
    {
      "inputs": [],
      "name": "deliveredProducts",
      "outputs": [
        {
          "internalType": "uint256",
          "name": "",
          "type": "uint256"
        }
      ],
      "stateMutability": "view",
      "type": "function"
    },
    {
      "inputs": [
        {
          "internalType": "string",
          "name": "uid",
          "type": "string"
        }
      ],
      "name": "getCurrentOwner",
      "outputs": [
        {
          "internalType": "address",
          "name": "",
          "type": "address"
        }
      ],
      "stateMutability": "view",
      "type": "function"
    },
    {
      "inputs": [],
      "name": "getDashboardStats",
      "outputs": [
        {
          "internalType": "uint256",
          "name": "total",
          "type": "uint256"
        },
        {
          "internalType": "uint256",
          "name": "approved",
          "type": "uint256"
        },
        {
          "internalType": "uint256",
          "name": "inspection",
          "type": "uint256"
        },
        {
          "internalType": "uint256",
          "name": "rejected",
          "type": "uint256"
        },
        {
          "internalType": "uint256",
          "name": "delivered",
          "type": "uint256"
        }
      ],
      "stateMutability": "view",
      "type": "function"
    },
    {
      "inputs": [
        {
          "internalType": "string",
          "name": "uid",
          "type": "string"
        }
      ],
      "name": "getDocuments",
      "outputs": [
        {
          "components": [
            {
              "internalType": "enum SupplyChain.DocumentType",
              "name": "documentType",
              "type": "uint8"
            },
            {
              "internalType": "string",
              "name": "fileName",
              "type": "string"
            },
            {
              "internalType": "string",
              "name": "ipfsCID",
              "type": "string"
            },
            {
              "internalType": "uint256",
              "name": "uploadedAt",
              "type": "uint256"
            },
            {
              "internalType": "address",
              "name": "uploadedBy",
              "type": "address"
            }
          ],
          "internalType": "struct SupplyChain.Document[]",
          "name": "",
          "type": "tuple[]"
        }
      ],
      "stateMutability": "view",
      "type": "function"
    },
    {
      "inputs": [
        {
          "internalType": "string",
          "name": "uid",
          "type": "string"
        }
      ],
      "name": "getManufacturer",
      "outputs": [
        {
          "internalType": "address",
          "name": "",
          "type": "address"
        }
      ],
      "stateMutability": "view",
      "type": "function"
    },
    {
      "inputs": [],
      "name": "getMyRole",
      "outputs": [
        {
          "internalType": "enum SupplyChain.Role",
          "name": "",
          "type": "uint8"
        }
      ],
      "stateMutability": "view",
      "type": "function"
    },
    {
      "inputs": [
        {
          "internalType": "string",
          "name": "uid",
          "type": "string"
        }
      ],
      "name": "getProduct",
      "outputs": [
        {
          "components": [
            {
              "internalType": "uint256",
              "name": "id",
              "type": "uint256"
            },
            {
              "internalType": "string",
              "name": "uid",
              "type": "string"
            },
            {
              "internalType": "string",
              "name": "name",
              "type": "string"
            },
            {
              "internalType": "string",
              "name": "batchNo",
              "type": "string"
            },
            {
              "internalType": "string",
              "name": "description",
              "type": "string"
            },
            {
              "internalType": "uint256",
              "name": "manufactureDate",
              "type": "uint256"
            },
            {
              "internalType": "address",
              "name": "manufacturer",
              "type": "address"
            },
            {
              "internalType": "address",
              "name": "currentOwner",
              "type": "address"
            },
            {
              "internalType": "uint8",
              "name": "qualityScore",
              "type": "uint8"
            },
            {
              "internalType": "bool",
              "name": "inspectionRequired",
              "type": "bool"
            },
            {
              "internalType": "enum SupplyChain.ProductStatus",
              "name": "status",
              "type": "uint8"
            },
            {
              "internalType": "bool",
              "name": "exists",
              "type": "bool"
            }
          ],
          "internalType": "struct SupplyChain.Product",
          "name": "",
          "type": "tuple"
        }
      ],
      "stateMutability": "view",
      "type": "function"
    },
    {
      "inputs": [],
      "name": "getProductCount",
      "outputs": [
        {
          "internalType": "uint256",
          "name": "",
          "type": "uint256"
        }
      ],
      "stateMutability": "view",
      "type": "function"
    },
    {
      "inputs": [
        {
          "internalType": "string",
          "name": "uid",
          "type": "string"
        }
      ],
      "name": "getProductHistory",
      "outputs": [
        {
          "components": [
            {
              "internalType": "address",
              "name": "actor",
              "type": "address"
            },
            {
              "internalType": "string",
              "name": "action",
              "type": "string"
            },
            {
              "internalType": "uint256",
              "name": "timestamp",
              "type": "uint256"
            }
          ],
          "internalType": "struct SupplyChain.ProductHistory[]",
          "name": "",
          "type": "tuple[]"
        }
      ],
      "stateMutability": "view",
      "type": "function"
    },
    {
      "inputs": [
        {
          "internalType": "string",
          "name": "uid",
          "type": "string"
        }
      ],
      "name": "getProductStatus",
      "outputs": [
        {
          "internalType": "enum SupplyChain.ProductStatus",
          "name": "",
          "type": "uint8"
        }
      ],
      "stateMutability": "view",
      "type": "function"
    },
    {
      "inputs": [
        {
          "internalType": "string",
          "name": "uid",
          "type": "string"
        }
      ],
      "name": "getQualityReports",
      "outputs": [
        {
          "components": [
            {
              "internalType": "uint8",
              "name": "packaging",
              "type": "uint8"
            },
            {
              "internalType": "uint8",
              "name": "labeling",
              "type": "uint8"
            },
            {
              "internalType": "uint8",
              "name": "temperature",
              "type": "uint8"
            },
            {
              "internalType": "uint8",
              "name": "physicalCondition",
              "type": "uint8"
            },
            {
              "internalType": "uint8",
              "name": "totalScore",
              "type": "uint8"
            },
            {
              "internalType": "bool",
              "name": "approved",
              "type": "bool"
            },
            {
              "internalType": "string",
              "name": "remarks",
              "type": "string"
            },
            {
              "internalType": "address",
              "name": "inspector",
              "type": "address"
            },
            {
              "internalType": "uint256",
              "name": "timestamp",
              "type": "uint256"
            }
          ],
          "internalType": "struct SupplyChain.QualityReport[]",
          "name": "",
          "type": "tuple[]"
        }
      ],
      "stateMutability": "view",
      "type": "function"
    },
    {
      "inputs": [
        {
          "internalType": "string",
          "name": "uid",
          "type": "string"
        }
      ],
      "name": "getQualityScore",
      "outputs": [
        {
          "internalType": "uint8",
          "name": "",
          "type": "uint8"
        }
      ],
      "stateMutability": "view",
      "type": "function"
    },
    {
      "inputs": [
        {
          "internalType": "address",
          "name": "user",
          "type": "address"
        }
      ],
      "name": "getRole",
      "outputs": [
        {
          "internalType": "enum SupplyChain.Role",
          "name": "",
          "type": "uint8"
        }
      ],
      "stateMutability": "view",
      "type": "function"
    },
    {
      "inputs": [
        {
          "internalType": "string",
          "name": "uid",
          "type": "string"
        },
        {
          "internalType": "address",
          "name": "newOwner",
          "type": "address"
        }
      ],
      "name": "initiateTransfer",
      "outputs": [],
      "stateMutability": "nonpayable",
      "type": "function"
    },
    {
      "inputs": [],
      "name": "inspectionProducts",
      "outputs": [
        {
          "internalType": "uint256",
          "name": "",
          "type": "uint256"
        }
      ],
      "stateMutability": "view",
      "type": "function"
    },
    {
      "inputs": [
        {
          "internalType": "string",
          "name": "uid",
          "type": "string"
        },
        {
          "internalType": "uint8",
          "name": "packaging",
          "type": "uint8"
        },
        {
          "internalType": "uint8",
          "name": "labeling",
          "type": "uint8"
        },
        {
          "internalType": "uint8",
          "name": "temperature",
          "type": "uint8"
        },
        {
          "internalType": "uint8",
          "name": "physicalCondition",
          "type": "uint8"
        },
        {
          "internalType": "string",
          "name": "remarks",
          "type": "string"
        }
      ],
      "name": "inspectionResult",
      "outputs": [],
      "stateMutability": "nonpayable",
      "type": "function"
    },
    {
      "inputs": [
        {
          "internalType": "string",
          "name": "",
          "type": "string"
        }
      ],
      "name": "pendingTransfers",
      "outputs": [
        {
          "internalType": "address",
          "name": "from",
          "type": "address"
        },
        {
          "internalType": "address",
          "name": "to",
          "type": "address"
        },
        {
          "internalType": "bool",
          "name": "exists",
          "type": "bool"
        }
      ],
      "stateMutability": "view",
      "type": "function"
    },
    {
      "inputs": [
        {
          "internalType": "string",
          "name": "",
          "type": "string"
        }
      ],
      "name": "products",
      "outputs": [
        {
          "internalType": "uint256",
          "name": "id",
          "type": "uint256"
        },
        {
          "internalType": "string",
          "name": "uid",
          "type": "string"
        },
        {
          "internalType": "string",
          "name": "name",
          "type": "string"
        },
        {
          "internalType": "string",
          "name": "batchNo",
          "type": "string"
        },
        {
          "internalType": "string",
          "name": "description",
          "type": "string"
        },
        {
          "internalType": "uint256",
          "name": "manufactureDate",
          "type": "uint256"
        },
        {
          "internalType": "address",
          "name": "manufacturer",
          "type": "address"
        },
        {
          "internalType": "address",
          "name": "currentOwner",
          "type": "address"
        },
        {
          "internalType": "uint8",
          "name": "qualityScore",
          "type": "uint8"
        },
        {
          "internalType": "bool",
          "name": "inspectionRequired",
          "type": "bool"
        },
        {
          "internalType": "enum SupplyChain.ProductStatus",
          "name": "status",
          "type": "uint8"
        },
        {
          "internalType": "bool",
          "name": "exists",
          "type": "bool"
        }
      ],
      "stateMutability": "view",
      "type": "function"
    },
    {
      "inputs": [
        {
          "internalType": "string",
          "name": "uid",
          "type": "string"
        },
        {
          "internalType": "uint8",
          "name": "packaging",
          "type": "uint8"
        },
        {
          "internalType": "uint8",
          "name": "labeling",
          "type": "uint8"
        },
        {
          "internalType": "uint8",
          "name": "temperature",
          "type": "uint8"
        },
        {
          "internalType": "uint8",
          "name": "physicalCondition",
          "type": "uint8"
        },
        {
          "internalType": "string",
          "name": "remarks",
          "type": "string"
        }
      ],
      "name": "qualityCheck",
      "outputs": [],
      "stateMutability": "nonpayable",
      "type": "function"
    },
    {
      "inputs": [],
      "name": "rejectedProducts",
      "outputs": [
        {
          "internalType": "uint256",
          "name": "",
          "type": "uint256"
        }
      ],
      "stateMutability": "view",
      "type": "function"
    },
    {
      "inputs": [
        {
          "internalType": "string",
          "name": "uid",
          "type": "string"
        }
      ],
      "name": "requiresInspection",
      "outputs": [
        {
          "internalType": "bool",
          "name": "",
          "type": "bool"
        }
      ],
      "stateMutability": "view",
      "type": "function"
    },
    {
      "inputs": [
        {
          "internalType": "address",
          "name": "",
          "type": "address"
        }
      ],
      "name": "roles",
      "outputs": [
        {
          "internalType": "enum SupplyChain.Role",
          "name": "",
          "type": "uint8"
        }
      ],
      "stateMutability": "view",
      "type": "function"
    },
    {
      "inputs": [
        {
          "internalType": "string",
          "name": "uid",
          "type": "string"
        },
        {
          "internalType": "enum SupplyChain.DocumentType",
          "name": "documentType",
          "type": "uint8"
        },
        {
          "internalType": "string",
          "name": "fileName",
          "type": "string"
        },
        {
          "internalType": "string",
          "name": "ipfsCID",
          "type": "string"
        }
      ],
      "name": "uploadDocument",
      "outputs": [],
      "stateMutability": "nonpayable",
      "type": "function"
    }
  ],
  "bytecode": "0x60a0604052348015600e575f5ffd5b50336080526080516139156100325f395f8181610505015261149401526139155ff3fe608060405234801561000f575f5ffd5b50600436106101c6575f3560e01c806368111cce116100fe5780639f62af071161009e578063d55a772d1161006e578063d55a772d1461047a578063efc2f7a61461048d578063f851a44014610500578063fd37e39c14610527575f5ffd5b80639f62af07146103f1578063a2f6805c14610411578063ce1ac6f814610447578063d4f504531461045a575f5ffd5b80636e3b47fc116100d95780636e3b47fc14610385578063842af60d1461039c57806399374642146103af5780639d804cee146103d1575f5ffd5b806368111cce146103495780636d136f62146103695780636d5867c51461037c575f5ffd5b80632a3bd17f116101695780633f0aa29c116101445780633f0aa29c146102ee57806344276733146102f75780634a348da91461032f578063630a195b14610336575f5ffd5b80632a3bd17f146102965780632c7c1121146102ab5780633b0a6139146102ce575f5ffd5b8063155066a0116101a4578063155066a01461022a57806317aaba59146102335780631f2149af1461024657806328ac2df214610271575f5ffd5b80630186a423146101ca57806305a8db5a146101fe57806314b4951b14610213575b5f5ffd5b6101dd6101d8366004612f30565b61053a565b6040516101f59c9b9a99989796959493929190612fbf565b60405180910390f35b61021161020c36600461308a565b6107d6565b005b61021c60015481565b6040519081526020016101f5565b61021c60045481565b61021161024136600461312c565b610d06565b610259610254366004612f30565b6110b1565b6040516001600160a01b0390911681526020016101f5565b61028461027f366004612f30565b611132565b60405160ff90911681526020016101f5565b61029e6111b4565b6040516101f591906131e8565b6102be6102b9366004612f30565b6111d0565b60405190151581526020016101f5565b6102e16102dc366004612f30565b611252565b6040516101f59190613201565b61021c60025481565b6103226103053660046132da565b6001600160a01b03165f9081526005602052604090205460ff1690565b6040516101f591906132f3565b5f5461021c565b61021161034436600461330d565b611489565b61035c610357366004612f30565b611608565b6040516101f59190613345565b610211610377366004612f30565b61196c565b61021c60035481565b335f9081526005602052604090205460ff16610322565b6102116103aa366004613450565b611ceb565b6103226103bd3660046132da565b60056020525f908152604090205460ff1681565b6103e46103df366004612f30565b61217f565b6040516101f5919061349a565b6104046103ff366004612f30565b61230e565b6040516101f5919061359c565b5f54600154600354600254600454604080519586526020860194909452928401919091526060830152608082015260a0016101f5565b61021161045536600461308a565b612390565b61046d610468366004612f30565b612a07565b6040516101f591906135b0565b610259610488366004612f30565b612b72565b6104d861049b366004612f30565b8051602081830181018051600a82529282019190930120915280546001909101546001600160a01b0391821691811690600160a01b900460ff1683565b604080516001600160a01b0394851681529390921660208401521515908201526060016101f5565b6102597f000000000000000000000000000000000000000000000000000000000000000081565b610211610535366004613634565b612bf2565b805160208183018101805160068252928201919093012091528054600182018054919291610567906136d5565b80601f0160208091040260200160405190810160405280929190818152602001828054610593906136d5565b80156105de5780601f106105b5576101008083540402835291602001916105de565b820191905f5260205f20905b8154815290600101906020018083116105c157829003601f168201915b5050505050908060020180546105f3906136d5565b80601f016020809104026020016040519081016040528092919081815260200182805461061f906136d5565b801561066a5780601f106106415761010080835404028352916020019161066a565b820191905f5260205f20905b81548152906001019060200180831161064d57829003601f168201915b50505050509080600301805461067f906136d5565b80601f01602080910402602001604051908101604052809291908181526020018280546106ab906136d5565b80156106f65780601f106106cd576101008083540402835291602001916106f6565b820191905f5260205f20905b8154815290600101906020018083116106d957829003601f168201915b50505050509080600401805461070b906136d5565b80601f0160208091040260200160405190810160405280929190818152602001828054610737906136d5565b80156107825780601f1061075957610100808354040283529160200191610782565b820191905f5260205f20905b81548152906001019060200180831161076557829003601f168201915b50505060058401546006850154600790950154939490936001600160a01b039182169350908116915060ff600160a01b8204811691600160a81b8104821691600160b01b8204811691600160b81b9004168c565b600280335f9081526005602081905260409091205460ff16908111156107fe576107fe612f97565b146108245760405162461bcd60e51b815260040161081b90613707565b60405180910390fd5b86600681604051610835919061372e565b9081526040519081900360200190206007015460ff600160b81b9091041661086f5760405162461bcd60e51b815260040161081b90613744565b5f600689604051610880919061372e565b908152604051908190036020019020905060026007820154600160b01b900460ff1660088111156108b3576108b3612f97565b146109005760405162461bcd60e51b815260206004820152601760248201527f496e7370656374696f6e206e6f74207265717569726564000000000000000000604482015260640161081b565b5f858761090d8a8c613783565b6109179190613783565b6109219190613783565b90505f8160ff16606414905060098b60405161093d919061372e565b90815260408051602092819003830181206101208201835260ff8e811683528d81168584019081528d82169484019485528c8216606085019081528883166080860190815288151560a0870190815260c087018f81523360e089015242610100808a0191909152875460018082018a555f998a529b9098208951600490990201805496519a5195519451935198881661ffff1990971696909617998716029890981763ffff00001916620100009386169390930263ff0000001916929092176301000000918516919091021765ffff000000001916640100000000919093160265ff0000000000191691909117650100000000009215159290920291909117815591519092820190610a4f90826137e8565b5060e08201516002820180546001600160a01b0319166001600160a01b039092169190911790556101009091015160039091015560078301805460ff60a01b1916600160a01b60ff8516021790558015610bbc5760018054905f610ab2836138a2565b90915550506007838101805461ffff60a81b1916600360b01b179055604051610adc908d9061372e565b9081526040805160209281900383018120606082018352338252825180840184526011815270125b9cdc1958dd1a5bdb8814185cdcd959607a1b8186015284830190815242938301939093528054600180820183555f92835294909120825160039092020180546001600160a01b0319166001600160a01b0390921691909117815591519092820190610b6f90826137e8565b5060409182015160029091015551610b88908c9061372e565b604051908190038120907f0f1c687db745f4d4c8dc68f364e0760413f41f61f7b4241a654e41892a57b1a6905f90a2610cad565b60028054905f610bcb836138a2565b90915550506007838101805461ffff60a81b1916600160b31b179055604051610bf5908d9061372e565b90815260408051602092819003830181206060820183523382528382018a815242938301939093528054600180820183555f92835294909120825160039092020180546001600160a01b0319166001600160a01b0390921691909117815591519092820190610c6490826137e8565b5060409182015160029091015551610c7d908c9061372e565b604051908190038120907f37c34607624695c5b0582313b5ae5b777d3cb8dd978780e7a71e7642b212c18f905f90a25b8a604051610cbb919061372e565b60405190819003812060ff84168252907f726ae748bbbfc052abc3cf9a0290b861c28fd19c306f646bab0082a35d15d006906020015b60405180910390a25050505050505050505050565b600180335f9081526005602081905260409091205460ff1690811115610d2e57610d2e612f97565b14610d4b5760405162461bcd60e51b815260040161081b90613707565b600686604051610d5b919061372e565b9081526040519081900360200190206007015460ff600160b81b9091041615610dbf5760405162461bcd60e51b815260206004820152601660248201527550726f6475637420616c72656164792065786973747360501b604482015260640161081b565b5f865111610dfe5760405162461bcd60e51b815260206004820152600c60248201526b155251081c995c5d5a5c995960a21b604482015260640161081b565b5f80549080610e0c836138a2565b909155505060408051610180810182525f8054825260208201899052818301889052606082018790526080820186905260a082018590523360c0830181905260e08301526101008201819052610120820181905261014082015260016101608201529051600690610e7e90899061372e565b9081526040516020918190038201902082518155908201516001820190610ea590826137e8565b5060408201516002820190610eba90826137e8565b5060608201516003820190610ecf90826137e8565b5060808201516004820190610ee490826137e8565b5060a0820151600582015560c08201516006820180546001600160a01b039283166001600160a01b031990911617905560e08301516007830180546101008601516101208701511515600160a81b0260ff60a81b1960ff909216600160a01b026001600160a81b03199093169490951693909317179182168317815561014085015192909160ff60b01b1990911661ffff60a81b1990911617600160b01b836008811115610f9457610f94612f97565b0217905550610160919091015160079182018054911515600160b81b0260ff60b81b19909216919091179055604051610fce90889061372e565b908152604080516020928190038301812060608201835233825282518084018452600f81526e141c9bd91d58dd0810dc99585d1959608a1b8186015284830190815242938301939093528054600180820183555f92835294909120825160039092020180546001600160a01b0319166001600160a01b039092169190911781559151909282019061105f90826137e8565b5060409182015160029091015551339061107a90889061372e565b604051908190038120907f6276b46249f3ef9f8582903c6f0d43109febb82b3ec9f4dbd15662bb71ec9c7b905f90a3505050505050565b5f816006816040516110c3919061372e565b9081526040519081900360200190206007015460ff600160b81b909104166110fd5760405162461bcd60e51b815260040161081b90613744565b60068360405161110d919061372e565b908152604051908190036020019020600601546001600160a01b031691505b50919050565b5f81600681604051611144919061372e565b9081526040519081900360200190206007015460ff600160b81b9091041661117e5760405162461bcd60e51b815260040161081b90613744565b60068360405161118e919061372e565b9081526040519081900360200190206007015460ff600160a01b90910416915050919050565b6040518060600160405280602581526020016138bb6025913981565b5f816006816040516111e2919061372e565b9081526040519081900360200190206007015460ff600160b81b9091041661121c5760405162461bcd60e51b815260040161081b90613744565b60068360405161122c919061372e565b9081526040519081900360200190206007015460ff600160a81b90910416915050919050565b606081600681604051611265919061372e565b9081526040519081900360200190206007015460ff600160b81b9091041661129f5760405162461bcd60e51b815260040161081b90613744565b6008836040516112af919061372e565b9081526020016040518091039020805480602002602001604051908101604052809291908181526020015f905b8282101561147d575f848152602090206040805160a08101909152600584029091018054829060ff16600381111561131657611316612f97565b600381111561132757611327612f97565b815260200160018201805461133b906136d5565b80601f0160208091040260200160405190810160405280929190818152602001828054611367906136d5565b80156113b25780601f10611389576101008083540402835291602001916113b2565b820191905f5260205f20905b81548152906001019060200180831161139557829003601f168201915b505050505081526020016002820180546113cb906136d5565b80601f01602080910402602001604051908101604052809291908181526020018280546113f7906136d5565b80156114425780601f1061141957610100808354040283529160200191611442565b820191905f5260205f20905b81548152906001019060200180831161142557829003601f168201915b505050918352505060038201546020808301919091526004909201546001600160a01b031660409091015290825260019290920191016112dc565b50505050915050919050565b336001600160a01b037f000000000000000000000000000000000000000000000000000000000000000016146114ee5760405162461bcd60e51b815260206004820152600a60248201526927b7363c9030b236b4b760b11b604482015260640161081b565b6001600160a01b0382166115365760405162461bcd60e51b815260206004820152600f60248201526e496e76616c6964206164647265737360881b604482015260640161081b565b5f81600581111561154957611549612f97565b036115855760405162461bcd60e51b815260206004820152600c60248201526b496e76616c696420726f6c6560a01b604482015260640161081b565b6001600160a01b0382165f9081526005602081905260409091208054839260ff199091169060019084908111156115be576115be612f97565b0217905550816001600160a01b03167f4ac36fa53f167ceb85964be512e01de2a3b8bdb9862f917da079deeeff689b38826040516115fc91906132f3565b60405180910390a25050565b611610612e12565b81600681604051611621919061372e565b9081526040519081900360200190206007015460ff600160b81b9091041661165b5760405162461bcd60e51b815260040161081b90613744565b60068360405161166b919061372e565b9081526020016040518091039020604051806101800160405290815f820154815260200160018201805461169e906136d5565b80601f01602080910402602001604051908101604052809291908181526020018280546116ca906136d5565b80156117155780601f106116ec57610100808354040283529160200191611715565b820191905f5260205f20905b8154815290600101906020018083116116f857829003601f168201915b5050505050815260200160028201805461172e906136d5565b80601f016020809104026020016040519081016040528092919081815260200182805461175a906136d5565b80156117a55780601f1061177c576101008083540402835291602001916117a5565b820191905f5260205f20905b81548152906001019060200180831161178857829003601f168201915b505050505081526020016003820180546117be906136d5565b80601f01602080910402602001604051908101604052809291908181526020018280546117ea906136d5565b80156118355780601f1061180c57610100808354040283529160200191611835565b820191905f5260205f20905b81548152906001019060200180831161181857829003601f168201915b5050505050815260200160048201805461184e906136d5565b80601f016020809104026020016040519081016040528092919081815260200182805461187a906136d5565b80156118c55780601f1061189c576101008083540402835291602001916118c5565b820191905f5260205f20905b8154815290600101906020018083116118a857829003601f168201915b50505091835250506005820154602082015260068201546001600160a01b0390811660408301526007830154908116606083015260ff600160a01b820481166080840152600160a81b82048116151560a084015260c090920191600160b01b90910416600881111561193957611939612f97565b600881111561194a5761194a612f97565b815260079190910154600160b81b900460ff1615156020909101529392505050565b8060068160405161197d919061372e565b9081526040519081900360200190206007015460ff600160b81b909104166119b75760405162461bcd60e51b815260040161081b90613744565b5f600a836040516119c8919061372e565b908152604051908190036020019020600181015490915060ff600160a01b90910416611a2c5760405162461bcd60e51b81526020600482015260136024820152722737903832b73234b733903a3930b739b332b960691b604482015260640161081b565b60018101546001600160a01b03163314611a775760405162461bcd60e51b815260206004820152600c60248201526b2737ba103932b1b2b4bb32b960a11b604482015260640161081b565b5f600684604051611a88919061372e565b9081526040805160209281900383019020600781018054336001600160a01b0319821681179092555f918252600590945291909120549092506001600160a01b039091169060ff166003816005811115611ae457611ae4612f97565b03611b0b576007830180546004919060ff60b01b1916600160b01b835b0217905550611b6f565b6004816005811115611b1f57611b1f612f97565b03611b40576007830180546005919060ff60b01b1916600160b01b83611b01565b6005816005811115611b5457611b54612f97565b03611b6f5760078301805460ff60b01b1916600360b11b1790555b600786604051611b7f919061372e565b9081526040805160209281900383018120606082018352338252825180840184526011815270151c985b9cd9995c881058d8d95c1d1959607a1b8186015284830190815242938301939093528054600180820183555f92835294909120825160039092020180546001600160a01b0319166001600160a01b0390921691909117815591519092820190611c1290826137e8565b50604082015181600201555050600a86604051611c2f919061372e565b90815260405190819003602001812080546001600160a01b031916815560010180546001600160a81b031916905533906001600160a01b03841690611c7590899061372e565b604051908190038120907f6840904f5b31827f74e1497360da245f56e530c8c3de3163a2d31f11493273c6905f90a46040513390611cb490889061372e565b604051908190038120907f77f9b14bccb831f84bd283a53852b3ca219a25802484df3143b211729af0cc83905f90a3505050505050565b81600681604051611cfc919061372e565b9081526040519081900360200190206007015460ff600160b81b90910416611d365760405162461bcd60e51b815260040161081b90613744565b5f600684604051611d47919061372e565b90815260405190819003602001902060078101549091506001600160a01b03163314611daa5760405162461bcd60e51b815260206004820152601260248201527127b7363c9031bab93932b73a1037bbb732b960711b604482015260640161081b565b6001600160a01b038316611df25760405162461bcd60e51b815260206004820152600f60248201526e496e76616c6964206164647265737360881b604482015260640161081b565b600a84604051611e02919061372e565b9081526040519081900360200190206001015460ff600160a01b9091041615611e6d5760405162461bcd60e51b815260206004820152601860248201527f5472616e7366657220616c72656164792070656e64696e670000000000000000604482015260640161081b565b60086007820154600160b01b900460ff166008811115611e8f57611e8f612f97565b03611ecf5760405162461bcd60e51b815260206004820152601060248201526f14995a9958dd1959081c1c9bd91d58dd60821b604482015260640161081b565b335f90815260056020526040808220546001600160a01b038616835291205460ff91821691166001826005811115611f0957611f09612f97565b03611f74576003816005811115611f2257611f22612f97565b14611f6f5760405162461bcd60e51b815260206004820152601c60248201527f5472616e73666572206f6e6c7920746f204469737472696275746f7200000000604482015260640161081b565b6120a7565b6003826005811115611f8857611f88612f97565b03611fee576004816005811115611fa157611fa1612f97565b14611f6f5760405162461bcd60e51b815260206004820152601a60248201527f5472616e73666572206f6e6c7920746f2057617265686f757365000000000000604482015260640161081b565b600482600581111561200257612002612f97565b0361206857600581600581111561201b5761201b612f97565b14611f6f5760405162461bcd60e51b815260206004820152601960248201527f5472616e73666572206f6e6c7920746f2052657461696c657200000000000000604482015260640161081b565b60405162461bcd60e51b8152602060048201526014602482015273151c985b9cd9995c881b9bdd08185b1b1bddd95960621b604482015260640161081b565b604080516060810182523381526001600160a01b03871660208201526001818301529051600a906120d990899061372e565b908152604080519182900360209081018320845181546001600160a01b039182166001600160a01b0319909116178255918501516001909101805495909301511515600160a01b026001600160a81b03199095169082161793909317905590861690339061214890899061372e565b604051908190038120907fcacc282346753d2f375de14b9b4b6ac468ffc411065cec53fe7318de3130b0a9905f90a4505050505050565b6060600982604051612191919061372e565b9081526020016040518091039020805480602002602001604051908101604052809291908181526020015f905b82821015612303575f848152602090819020604080516101208101825260048602909201805460ff80821685526101008204811695850195909552620100008104851692840192909252630100000082048416606084015264010000000082048416608084015265010000000000909104909216151560a082015260018201805491929160c084019190612251906136d5565b80601f016020809104026020016040519081016040528092919081815260200182805461227d906136d5565b80156122c85780601f1061229f576101008083540402835291602001916122c8565b820191905f5260205f20905b8154815290600101906020018083116122ab57829003601f168201915b505050918352505060028201546001600160a01b031660208083019190915260039092015460409091015290825260019290920191016121be565b505050509050919050565b5f81600681604051612320919061372e565b9081526040519081900360200190206007015460ff600160b81b9091041661235a5760405162461bcd60e51b815260040161081b90613744565b60068360405161236a919061372e565b9081526040519081900360200190206007015460ff600160b01b90910416915050919050565b600280335f9081526005602081905260409091205460ff16908111156123b8576123b8612f97565b146123d55760405162461bcd60e51b815260040161081b90613707565b866006816040516123e6919061372e565b9081526040519081900360200190206007015460ff600160b81b909104166124205760405162461bcd60e51b815260040161081b90613744565b60198760ff1611156124675760405162461bcd60e51b815260206004820152601060248201526f5061636b6167696e67206d617820323560801b604482015260640161081b565b60198660ff1611156124ad5760405162461bcd60e51b815260206004820152600f60248201526e4c6162656c696e67206d617820323560881b604482015260640161081b565b60198560ff1611156124f65760405162461bcd60e51b815260206004820152601260248201527154656d7065726174757265206d617820323560701b604482015260640161081b565b60198460ff16111561253c5760405162461bcd60e51b815260206004820152600f60248201526e506879736963616c206d617820323560881b604482015260640161081b565b5f60068960405161254d919061372e565b90815260405190819003602001902090505f6007820154600160b01b900460ff16600881111561257f5761257f612f97565b146125c05760405162461bcd60e51b8152602060048201526011602482015270105b1c9958591e481a5b9cdc1958dd1959607a1b604482015260640161081b565b5f85876125cd8a8c613783565b6125d79190613783565b6125e19190613783565b90505f8160ff16606414905060098b6040516125fd919061372e565b90815260408051602092819003830181206101208201835260ff8e811683528d81168584019081528d82169484019485528c8216606085019081528883166080860190815288151560a0870190815260c087018f81523360e089015242610100808a0191909152875460018082018a555f998a529b9098208951600490990201805496519a5195519451935198881661ffff1990971696909617998716029890981763ffff00001916620100009386169390930263ff0000001916929092176301000000918516919091021765ffff000000001916640100000000919093160265ff000000000019169190911765010000000000921515929092029190911781559151909282019061270f90826137e8565b5060e08201516002820180546001600160a01b0319166001600160a01b039092169190911790556101009091015160039091015560078301805460ff60a01b1916600160a01b60ff851602179055801561287b5760018054905f612772836138a2565b90915550506007838101805461ffff60a81b1916600360b01b17905560405161279c908d9061372e565b908152604080516020928190038301812060608201835233825282518084018452601081526f145d585b1a5d1e48105c1c1c9bdd995960821b8186015284830190815242938301939093528054600180820183555f92835294909120825160039092020180546001600160a01b0319166001600160a01b039092169190911781559151909282019061282e90826137e8565b5060409182015160029091015551612847908c9061372e565b604051908190038120907f0f1c687db745f4d4c8dc68f364e0760413f41f61f7b4241a654e41892a57b1a6905f90a261296d565b60038054905f61288a836138a2565b90915550506007838101805461ffff60a81b191661020160a81b1790556040516128b5908d9061372e565b90815260408051602092819003830181206060820183523382528382018a815242938301939093528054600180820183555f92835294909120825160039092020180546001600160a01b0319166001600160a01b039092169190911781559151909282019061292490826137e8565b506040918201516002909101555161293d908c9061372e565b604051908190038120907f6150b619836e794a71e0841f9108a7fea6a4333af1108f2c12b5d28a5eac9fdb905f90a25b8a60405161297b919061372e565b60405190819003812060ff84168252907fd2b9f63b43719203d1093c9969089173bd2165aec945d566f2fd40bac53102eb9060200160405180910390a28a6040516129c6919061372e565b6040805191829003822060ff851683528315156020840152917f62611c6f04b7960b872b3c049e9a89dce35c604a47c286a0a70ee23b46fd0a5c9101610cf1565b606081600681604051612a1a919061372e565b9081526040519081900360200190206007015460ff600160b81b90910416612a545760405162461bcd60e51b815260040161081b90613744565b600783604051612a64919061372e565b9081526020016040518091039020805480602002602001604051908101604052809291908181526020015f905b8282101561147d575f84815260209081902060408051606081019091526003850290910180546001600160a01b031682526001810180549293919291840191612ad9906136d5565b80601f0160208091040260200160405190810160405280929190818152602001828054612b05906136d5565b8015612b505780601f10612b2757610100808354040283529160200191612b50565b820191905f5260205f20905b815481529060010190602001808311612b3357829003601f168201915b5050505050815260200160028201548152505081526020019060010190612a91565b5f81600681604051612b84919061372e565b9081526040519081900360200190206007015460ff600160b81b90910416612bbe5760405162461bcd60e51b815260040161081b90613744565b600683604051612bce919061372e565b908152604051908190036020019020600701546001600160a01b0316915050919050565b83600681604051612c03919061372e565b9081526040519081900360200190206007015460ff600160b81b90910416612c3d5760405162461bcd60e51b815260040161081b90613744565b5f600686604051612c4e919061372e565b9081526040519081900360200190206007810154909150336001600160a01b039091161480612c89575060068101546001600160a01b031633145b612cc65760405162461bcd60e51b815260206004820152600e60248201526d139bdd08185d5d1a1bdc9a5e995960921b604482015260640161081b565b600886604051612cd6919061372e565b90815260200160405180910390206040518060a00160405280876003811115612d0157612d01612f97565b8152602080820188905260408201879052426060830152336080909201919091528254600181810185555f9485529190932082516005909402018054929390929091839160ff191690836003811115612d5c57612d5c612f97565b021790555060208201516001820190612d7590826137e8565b5060408201516002820190612d8a90826137e8565b5060608201516003820155608090910151600490910180546001600160a01b0319166001600160a01b03909216919091179055604051612dcb90879061372e565b60405180910390207fa1099dd93f4553cef201088a4429240a31c3705785abecc51dae3ce04002f73b85604051612e0291906131e8565b60405180910390a2505050505050565b6040518061018001604052805f8152602001606081526020016060815260200160608152602001606081526020015f81526020015f6001600160a01b031681526020015f6001600160a01b031681526020015f60ff1681526020015f151581526020015f6008811115612e8757612e87612f97565b81525f60209091015290565b634e487b7160e01b5f52604160045260245ffd5b5f82601f830112612eb6575f5ffd5b81356001600160401b03811115612ecf57612ecf612e93565b604051601f8201601f19908116603f011681016001600160401b0381118282101715612efd57612efd612e93565b604052818152838201602001851015612f14575f5ffd5b816020850160208301375f918101602001919091529392505050565b5f60208284031215612f40575f5ffd5b81356001600160401b03811115612f55575f5ffd5b612f6184828501612ea7565b949350505050565b5f81518084528060208401602086015e5f602082860101526020601f19601f83011685010191505092915050565b634e487b7160e01b5f52602160045260245ffd5b60098110612fbb57612fbb612f97565b9052565b8c815261018060208201525f612fd961018083018e612f69565b8281036040840152612feb818e612f69565b90508281036060840152612fff818d612f69565b90508281036080840152613013818c612f69565b60a084018b90526001600160a01b038a811660c0860152891660e0850152915061303a9050565b60ff861661010083015284151561012083015261305b610140830185612fab565b8215156101608301529d9c50505050505050505050505050565b803560ff81168114613085575f5ffd5b919050565b5f5f5f5f5f5f60c0878903121561309f575f5ffd5b86356001600160401b038111156130b4575f5ffd5b6130c089828a01612ea7565b9650506130cf60208801613075565b94506130dd60408801613075565b93506130eb60608801613075565b92506130f960808801613075565b915060a08701356001600160401b03811115613113575f5ffd5b61311f89828a01612ea7565b9150509295509295509295565b5f5f5f5f5f60a08688031215613140575f5ffd5b85356001600160401b03811115613155575f5ffd5b61316188828901612ea7565b95505060208601356001600160401b0381111561317c575f5ffd5b61318888828901612ea7565b94505060408601356001600160401b038111156131a3575f5ffd5b6131af88828901612ea7565b93505060608601356001600160401b038111156131ca575f5ffd5b6131d688828901612ea7565b95989497509295608001359392505050565b602081525f6131fa6020830184612f69565b9392505050565b5f602082016020835280845180835260408501915060408160051b8601019250602086015f5b828110156132b857868503603f19018452815180516004811061324c5761324c612f97565b80875250602081015160a0602088015261326960a0880182612f69565b9050604082015187820360408901526132828282612f69565b606084810151908a01526080938401516001600160a01b0316939098019290925250506020938401939190910190600101613227565b50929695505050505050565b80356001600160a01b0381168114613085575f5ffd5b5f602082840312156132ea575f5ffd5b6131fa826132c4565b602081016006831061330757613307612f97565b91905290565b5f5f6040838503121561331e575f5ffd5b613327836132c4565b915060208301356006811061333a575f5ffd5b809150509250929050565b60208152815160208201525f6020830151610180604084015261336c6101a0840182612f69565b90506040840151601f198483030160608501526133898282612f69565b9150506060840151601f198483030160808501526133a78282612f69565b9150506080840151601f198483030160a08501526133c58282612f69565b91505060a084015160c084015260c08401516133ec60e08501826001600160a01b03169052565b5060e08401516001600160a01b0381166101008501525061010084015160ff81166101208501525061012084015180151561014085015250610140840151613438610160850182612fab565b50610160840151801515610180850152509392505050565b5f5f60408385031215613461575f5ffd5b82356001600160401b03811115613476575f5ffd5b61348285828601612ea7565b925050613491602084016132c4565b90509250929050565b5f602082016020835280845180835260408501915060408160051b8601019250602086015f5b828110156132b857868503603f190184528151805160ff16865260208101516134ee602088018260ff169052565b506040810151613503604088018260ff169052565b506060810151613518606088018260ff169052565b50608081015161352d608088018260ff169052565b5060a081015161354160a088018215159052565b5060c081015161012060c088015261355d610120880182612f69565b905060e082015161357960e08901826001600160a01b03169052565b5061010091820151969091019590955260209384019391909101906001016134c0565b602081016135aa8284612fab565b92915050565b5f602082016020835280845180835260408501915060408160051b8601019250602086015f5b828110156132b857868503603f19018452815180516001600160a01b0316865260208082015160609188018290529061361190880182612f69565b6040928301519790920196909652945060209384019391909101906001016135d6565b5f5f5f5f60808587031215613647575f5ffd5b84356001600160401b0381111561365c575f5ffd5b61366887828801612ea7565b94505060208501356004811061367c575f5ffd5b925060408501356001600160401b03811115613696575f5ffd5b6136a287828801612ea7565b92505060608501356001600160401b038111156136bd575f5ffd5b6136c987828801612ea7565b91505092959194509250565b600181811c908216806136e957607f821691505b60208210810361112c57634e487b7160e01b5f52602260045260245ffd5b6020808252600d908201526c1058d8d95cdcc819195b9a5959609a1b604082015260600190565b5f82518060208501845e5f920191825250919050565b602080825260119082015270141c9bd91d58dd081b9bdd08199bdd5b99607a1b604082015260600190565b634e487b7160e01b5f52601160045260245ffd5b60ff81811683821601908111156135aa576135aa61376f565b601f8211156137e357805f5260205f20601f840160051c810160208510156137c15750805b601f840160051c820191505b818110156137e0575f81556001016137cd565b50505b505050565b81516001600160401b0381111561380157613801612e93565b6138158161380f84546136d5565b8461379c565b6020601f821160018114613847575f83156138305750848201515b5f19600385901b1c1916600184901b1784556137e0565b5f84815260208120601f198516915b828110156138765787850151825560209485019460019092019101613856565b508482101561389357868401515f19600387901b60f8161c191681555b50505050600190811b01905550565b5f600182016138b3576138b361376f565b506001019056fe446563656e7472616c697a656420537570706c7920436861696e204d616e6167656d656e74a26469706673582212209fabb7fff1c48dd67a0fb9a348479da3038d65c4a1e9bd919c376dd8cb770efb64736f6c634300081c0033",
  "linkReferences": {},
  "deployedLinkReferences": {},
  "immutableReferences": {
    "6": [
      {
        "length": 32,
        "start": 1285
      },
      {
        "length": 32,
        "start": 5268
      }
    ]
  },
  "inputSourceName": "project/contracts/supplychain.sol",
  "buildInfoId": "solc-0_8_28-db4793c96c0b7a91f16e7d8f5fcf38312e610bcb"
}